:020000040800F2
:10000000A808002089010008EB1900084117000822
:10001000E919000891020008711F000800000000A3
:100020000000000000000000000000001B1A000893
:100030009302000800000000191A00081D1A0008A9
:10004000A3010008A3010008A3010008A301000800
:10005000A3010008A3010008A3010008A3010008F0
:10006000A3010008A3010008A3010008A3010008E0
:10007000A3010008A3010008A3010008A3010008D0
:10008000A3010008A3010008A3010008A3010008C0
:10009000A3010008A3010008A3010008A3010008B0
:1000A000A3010008811A0008A3010008A3010008A9
:1000B000A30100088D1A0008991A0008A30100087E
:1000C000A3010008A3010008A3010008A301000880
:1000D000A3010008A3010008A3010008651F000890
:1000E000A3010008A3010008A301000800F002F822
:1000F00000F03AF80AA090E8000C82448344AAF188
:100100000107DA4501D100F02FF8AFF2090EBAE885
:100110000F0013F0010F18BFFB1A43F0010318473B
:10012000F01E0000101F0000103A24BF78C878C1EC
:10013000FAD8520724BF30C830C144BF04680C60ED
:10014000704700000023002400250026103A28BF35
:1001500078C1FBD8520728BF30C148BF0B60704739
:100160001FB51FBD10B510BD00F058F81146FFF7C0
:10017000F7FF01F00FFF00F076F803B4FFF7F2FF8E
:1001800003BC00F07FF80000094880470948004799
:10019000FEE7FEE7FEE7FEE7FEE7FEE7FEE7FEE737
:1001A000FEE7FEE704480549054A064B7047000094
:1001B0007F1A0008ED000008A8020020A80800200F
:1001C000A8040020A80400204FF0000200B5134648
:1001D00094469646203922BFA0E80C50A0E80C5067
:1001E000B1F12001BFF4F7AF090728BFA0E80C5018
:1001F00048BF0CC05DF804EB890028BF40F8042B11
:1002000008BF704748BF20F8022B11F0804F18BF7D
:1002100000F8012B7047704770477047754600F033
:100220002BF8AE4605006946534620F00700854688
:1002300018B020B5FFF7B6FFBDE820404FF000062C
:100240004FF000074FF000084FF0000B21F00701BE
:10025000AC46ACE8C009ACE8C009ACE8C009ACE801
:10026000C0098D46704710B50446AFF300802046A4
:10027000BDE81040FFF781BF0048704748020020EA
:100280007047000001491820ABBEFEE726000200BF
:10029000FEE7704772B6FEE710B590F82110002215
:1002A000022905D00421816380F82020012010BD9F
:1002B00001680B6823F00E030B6001680B6823F0E4
:1002C00001030B6090F84030C46B012101FA03F385
:1002D000636080F8211080F82020104610BD0000D7
:1002E00010B590F821100024022903D00421816365
:1002F00001243DE001680A6822F00E020A600168EC
:100300000A6822F001020A601A4A0168914201D18A
:10031000012121E0174A1432914201D110211BE042
:10032000144A2832914201D1891515E0114A3C3214
:10033000914201D189140FE00E4A5032914202D10C
:100340004FF4803108E00B4A6432914202D14FF4FD
:10035000801101E04FF08071064A083A5160012196
:1003600080F82110002180F82010416B01B18847EE
:10037000204610BD080002402DE9F84FDFF8B89183
:100380000024A9F1040B23460F2709F1040AABF15D
:10039000040EC9E00125A5402A40AA427DD1674E3E
:1003A000D1F804C0ACEB0608B44532D014DCBCF183
:1003B000030F3AD009DCBCF1000F2AD0BCF1010FC9
:1003C0001CD0BCF1020F31D11DE0BCF1110F17D0D0
:1003D000BCF1120F2AD119E0B8F5881F19D006DC3C
:1003E000B8F5803F15D0B8F5801F1FD111E0B8F5E2
:1003F000001F0ED0B8F5041F18D10AE0CB6815E035
:10040000CB681B1D12E0CB6808330FE0CB680C33C0
:100410000CE08B682BB1012B4FF0080303D0456132
:1004200004E0042302E0056100E00023FF2A01D874
:10043000064601E000F104064FEA840501D9A5F162
:100440002005D6F8008007FA05FC28EA0C0803FA14
:1004500005F548EA0508C6F800804D68ED0062D54C
:10046000374DAE6946F00106AE61AD6924F0030672
:1004700005F001050095334D06EB050CDCF808503E
:10048000A607360F07FA06F825EA0805DFF8B88050
:10049000404503D14FF0000817E044E0DFF8AC809E
:1004A000404502D14FF001080FE0DFF8A48040453D
:1004B00002D14FF0020808E0DFF89880404502D1F1
:1004C0004FF0030801E04FF0040808FA06F848EA84
:1004D0000508CCF808804D68D9F80060ED024D465B
:1004E00001D5164300E096432E604D68DAF80060AF
:1004F000AD02554601D5164300E096432E604D6887
:10050000DBF80060AD035D4601D5164300E096437D
:100510002E604D68DEF80060ED03754601D5164388
:1005200000E096432E60641C0D682A46E5407FF487
:1005300031AFBDE8F88F0000080401400000111041
:10054000001002400000014000080140000C014082
:1005500000100140001401400AB101617047090414
:10056000FBE70000014880687047000000000020A1
:1005700002488168027811448160704700000020C1
:10058000074810B5016841F010010160032000F038
:1005900075F80F2000F006F800F024F8002010BDD8
:1005A0000020024070B50D4D04464FF47A71287852
:1005B000B1FBF0F00A490968B1FBF0F000F0DCFA99
:1005C00048B9102C07D200222146501E00F036F800
:1005D00000206C6070BD012070BD00000000002094
:1005E0000C0000200C4808B5816941F001018161CF
:1005F000816901F001010091C16941F08051C1613F
:10060000C06900F0805000900448416821F0E0612A
:1006100041F00071416008BD00100240000001403F
:10062000002809DB00F01F020121914040098000F1
:1006300000F1E020C0F8001170470000F0B40E4B4C
:100640001B680C46C3F30223C3F10705042D00D930
:100650000425191D072901D2002300E0DB1E012615
:1006600006FA05F1491E214099409E40761E16402B
:100670003143F0BC01F07DBC0CED00E0064900F018
:10068000070208684FF6FF03184040EA0220034AB9
:1006900010430860704700000CED00E00000FA0510
:1006A0002DE9F0470F46050061D0434E306800F059
:1006B0000700B84209D2306820F0070038433060A4
:1006C000306800F00700B84251D128683B4C8107E0
:1006D00012D5400703D5606840F4E0606060287878
:1006E000000703D5606840F4605060606068A968E6
:1006F00020F0F000084360602878C00728D06868C0
:10070000012810D02168022810D0890700292EDA8C
:10071000616821F0030101436160FFF723FF804618
:1007200041F288390DE021688903EFE78901EDE79F
:10073000FFF718FFA0EB0801494502D90320BDE8E7
:10074000F0876068696800F00C00B0EB810FEFD1B2
:10075000306800F00700B8420BD9306820F007007D
:1007600038433060306800F00700B84201D0012003
:10077000E5E72878400705D56068E96820F4E0607F
:10078000084360602878000706D56068296920F46E
:10079000605040EAC100606000F038F86168084AC3
:1007A000C1F30311515CC84006490860064800685F
:1007B000FFF7F8FE0020C2E70020024000100240D0
:1007C000F61F00080C000020040000200448054922
:1007D00000684968044AC1F30221515CC84070476F
:1007E0000C000020001002400620000804480549C3
:1007F00000684968044AC1F3C221515CC84070478F
:100800000C00002000100240062000080E4A51682B
:100810000E4801F00C03042B11D0082B0FD10C480B
:10082000C1F38343C903C05C0AD55168084AC1F3C8
:100830004041921E515C054A5043B0FBF1F07047B5
:1008400004494843704700000010024000127A003B
:10085000E61F000800093D002DE9F84F040070D0A4
:100860002078C04DC00749D06868C0F381000128D6
:1008700007D06868C0F38100022809D16868C00306
:1008800006D52868800339D560680028E7D035E0B0
:100890006068B0F5803F0BD010B1B0F5A02F11D03B
:1008A000286820F480302860286820F4802002E046
:1008B000286840F480302860606890B1FFF752FEED
:1008C00006460AE0286840F480202860F0E700BF70
:1008D000FFF748FE801B642873D828688003F7D58B
:1008E0000CE0FFF73FFE064605E000BFFFF73AFECB
:1008F000801B6428F0D828688003F7D420789A4EAB
:1009000080074FF001094FF0000839D5686810F0F2
:100910000C0F07D06868C0F38100022809D168680D
:10092000C00306D42868800714D52069012808D19F
:1009300010E02069B0B1C6F80090FFF713FE07463B
:1009400005E00AE1FFF70EFEC01B0228C4D82868A4
:100950008007F7D52868616920F0F80040EAC100F7
:1009600028600DE0C6F80080FFF7FCFD074604E0B4
:10097000FFF7F8FDC01B022823D828688007F7D4AA
:10098000207800072CD57948A169D9B1C0F800902A
:10099000FFF7E8FD074604E0FFF7E4FDC01B02286F
:1009A0000FD8686A8007F7D571484FF4FA5100688C
:1009B000B0FBF1F0009000BF0098411E0091FAD208
:1009C0000EE080E0C0F80080FFF7CCFD074604E0B1
:1009D000FFF7C8FDC01B022875D8686A8007F7D4E6
:1009E0002078400760D5E8690027C00008D4E8698E
:1009F00040F08050E861E869012700F080500090E5
:100A00005C480168C90513D40168834641F48071CC
:100A10000160FFF7A7FD824606E000BFFFF7A2FDD9
:100A2000A0EB0A0064284ED8DBF80000C005F5D51D
:100A3000E06801280AD008B1052813D0286A20F000
:100A400001002862286A20F0040002E0286A40F0D1
:100A500001002862E06841F2883B98B1FFF782FD0F
:100A600082460BE0286A40F004002862EEE700BFEF
:100A7000FFF778FDA0EB0A0159455AD8286A80078C
:100A8000F6D50CE0FFF76EFD824605E0FFF76AFD44
:100A9000A0EB0A0159454CD8286A8007F6D41FB14B
:100AA000E86920F08050E861E06988B36968C1F3C3
:100AB0008101022944D00228C6F8608004D0FFF7E3
:100AC00051FD044638E034E0FFF74CFD074604E0F2
:100AD000FFF748FDC01B02282BD828688001F7D4F7
:100AE000206AB0F5803F05D16868A16820F4003025
:100AF00008436860D4E908010843696821F4741167
:100B000008436860C6F86090FFF72CFD044606E0D5
:100B100025E000BFFFF726FD001B022809D8286842
:100B20008001F7D51BE000BFFFF71CFD001B02286A
:100B300002D90320BDE8F88F28688001F4D40EE0C4
:100B40000128F7D06868226A00F48031914204D10C
:100B5000616A00F47010884201D00120EAE70020A9
:100B6000E8E70000001002400000424280044242D8
:100B70000C0000200070004010B5401EB0F1807FD6
:100B800001D3012010BD4FF0E02460610F216017F8
:100B900001F0EFF90020A06107202061002010BDC6
:100BA0007047704770B590F83C20012A26D0012488
:100BB00080F83C40022280F83D2003685A689D6816
:100BC00022F070060A6832435A600D4B02689A425E
:100BD00008D0B2F1804F05D00A4B9A4202D00A4B9E
:100BE0009A4204D1496825F080031943916080F846
:100BF0003D40002180F83C10084670BD022070BDC9
:100C0000002C0140000400400008004010B5040022
:100C100003D094F83D0010B107E0012010BD002082
:100C200084F83C00204600F01FF8022084F83D00C4
:100C3000211D206800F036FF012084F8460084F86A
:100C40003E0084F83F0084F8400084F8410084F8B6
:100C5000420084F8430084F8440084F8450084F896
:100C60003D00002010BD000008B500680B49884217
:100C700012D10B48816941F40061816180690022D1
:100C800000F40060009001211920FFF7D7FCBDE8B7
:100C900008401920FFF7C4BC08BD0000002C01402B
:100CA0000010024070B5044690F83C000025012871
:100CB00017D0012684F83C60022084F83D002068AB
:100CC000826822F0770222F47F428260086850280E
:100CD00038D00DDC20284FD005DC90B3102811D17E
:100CE0004AE0022070BD302846D040280AD13BE0BF
:100CF00060282FD070280DD0B0F5805F03D0B0F5FC
:100D0000005F12D0012584F83D60002084F83C008B
:100D1000284670BDCB68D1E90121206800F005FFAD
:100D20002068816841F0770109E0CB68D1E90121B1
:100D3000206800F0FAFE2068816841F480418160FB
:100D4000E1E719E0CA684968206800F0A3FF502174
:100D5000206806E0CA684968206800F0ACFF60219E
:100D6000206800F0ECFECEE7CA684968206800F011
:100D700091FF40212068F4E7226801461046F0E721
:100D80002DE9F0410D46040003D094F83D0018B160
:100D900008E00120BDE8F081002084F83C002046F6
:100DA00000F040F8022084F83D002068816844F299
:100DB000070291438160211D206800F073FE2268C4
:100DC00090689169166A2B68AF69034340F203305B
:100DD000814341EA0721A868EF6908434FF6FC41C7
:100DE0008843E96840EA0720014328692F6A000127
:100DF00040EA0730084369686D6926F0220646EA32
:100E00000515294393602268906154F8460B0162EE
:100E1000012004F81F09E0752076E0762077A075A0
:100E20000020B7E700B585B0002100910191029143
:100E30000391224B02682248C0219A421BD1C26909
:100E400042F00202C261C26902F0020204928269A7
:100E500042F0040282618069009100F00400049075
:100E600069461848FFF788FA002211461D20FFF74F
:100E7000E5FB1D201DE0144B9A421CD1C26942F0D3
:100E80000402C261C26902F004020492826942F063
:100E9000080282618069009100F0080004906946B0
:100EA0000A48FFF769FA002211461E20FFF7C6FB29
:100EB0001E20FFF7B5FB05B000BD00000004004098
:100EC000001002400008014000080040000C0140F2
:100ED000704770B50446006801694FF00005C943CA
:100EE000890715D4C168C943890711D4E91E016176
:100EF00001202077206880698007204602D0FFF714
:100F0000E7FF04E000F0BCF8204600F05FF9257729
:100F100020680169C943490717D4C168C943490713
:100F200013D46FF0040101610220207720688069EA
:100F300010F4407F204602D0FFF7CAFF04E000F023
:100F40009FF8204600F042F9257720680169C943DF
:100F5000090716D4C168C943090712D46FF0080104
:100F60000161042020772068C0698007204602D0F4
:100F7000FFF7AEFF04E000F083F8204600F026F90A
:100F8000257720680169C943C90617D4C168C943D8
:100F9000C90613D46FF01001016108202077206882
:100FA000C06910F4407F204602D0FFF791FF04E0B3
:100FB00000F066F8204600F009F9257720680169FD
:100FC000C943C90708D1C168C943C90704D1891EEB
:100FD0000161204600F04AF920680169C943090609
:100FE00009D4C168C943090605D46FF080010161C5
:100FF0002046FFF7D5FD20680169C943490609D499
:10100000C168C943490605D46FF04001016120461B
:1010100000F054F920680169C94389060BD4C168FE
:10102000C943890607D46FF0200101612046BDE85D
:101030007040FFF7B6BD70BD00B585B000210091CE
:101040000191029103910068B0F1804F11D10A48DB
:10105000816941F0040181618069694600F0040002
:1010600004900F2000900220019003900348FFF7A6
:1010700083F905B000BD00000010024000080140E7
:10108000704770B5044690F83C0000260D460128D4
:101090000FD0012084F83C006AB1042A1DD0082A30
:1010A0002FD00C2A3FD00126002084F83C00304687
:1010B00070BD022070BD206800F04AFD2068816983
:1010C00041F0080181612068816921F0040181619A
:1010D000206881692A69114311E0206800F060FDF1
:1010E0002068816941F4006181612068816921F48F
:1010F00080618161206881692A6941EA02218161F8
:10110000D2E7206800F078FD2068C16941F008014D
:10111000C1612068C16921F00401C1612068C16911
:101120002A69114311E0206800F092FD2068C1692E
:1011300041F40061C1612068C16921F48061C1612D
:101140002068C1692A6941EA0221C161ACE710B592
:10115000040003D094F83D0010B107E0012010BD59
:10116000002084F83C00204600F01EF8022084F89D
:101170003D00211D206800F095FC012084F8460008
:1011800084F83E0084F83F0084F8400084F8410071
:1011900084F8420084F8430084F8440084F8450051
:1011A00084F83D00002010BD08B50068B0F1804F04
:1011B00008D10548C16941F00101C161C06900F071
:1011C0000100009008BD00000010024070470000C0
:1011D00010B50446022249B104290ED0082913D0C3
:1011E00094F84100012816D0012010BD94F83E006B
:1011F0000128F9D184F83E200FE094F83F0001283F
:10120000F2D184F83F2008E094F840000128EBD1A7
:1012100084F8402001E084F841200122206800F099
:1012200077FC0F492068884203D1426C42F40042A7
:1012300042642068884208D0B0F1804F05D0094947
:10124000884202D00849884204D1816801F0070130
:10125000062903D0016841F001010160002010BDA2
:10126000002C014000040040000800400E4A0F49D5
:1012700090420BD10E480068C2060846B0F9000043
:1012800001D4401C00E0401E08807047094A90428B
:10129000FBD109480068C006488801D4401C00E022
:1012A000401E488070470000A80000201000002069
:1012B00000040040F0000020000800407047704724
:1012C000704710F8411F407808437047F8B501682F
:1012D00004460868CA684B6910F00F0F4FF000050C
:1012E00059D003F0010602F49077374365D0C10767
:1012F00005D0D10503D5616C41F00101616441075E
:1013000005D5D90703D0616C41F002016164810702
:1013100005D5D90703D0616C41F004016164010770
:1013200007D502F02001314303D0616C41F0080180
:101330006164616C00293AD0800604D5900602D51C
:10134000204600F0F9FC20684069616CC0F3801011
:10135000090700D460B3204600F0C7FC206840694C
:10136000400621D52068143050E8001F21F04001CC
:1013700040E80012002AF5D1E06BA8B16D49416345
:10138000E06BFEF7ADFF002811D0E06B416B01B0C0
:10139000BDE8F040084783060FD593060DD52046DB
:1013A000BDE8F84000F0C8BC2046FFF789FFF8BD53
:1013B0002046FFF785FF6564F8BD266B2023012ECC
:1013C0007CD1C6067AD5D60678D5086848680090DC
:1013D00048694FF00206400640D5E16B0868406856
:1013E0000004000CE8D0A28D8242E5D9E08588692E
:1013F00020282DD020680C3050E8001F21F4807187
:1014000040E80012002AF5D12068143050E8001F8F
:1014100021F0010140E80012002AF5D120681430C3
:1014200050E8001F21F0400140E80012002AF5D1E9
:1014300084F84230256320680C3050E8001F21F00A
:10144000100140E80012002AF5D1E06BFEF724FFFE
:101450006663A08DE18D401A81B22AE0A08DE18DF6
:10146000401A81B2E08D0028A6D00029A4D02268BD
:101470000C3252E8000F20F4907042E80007002F71
:10148000F5D12068143050E8002F22F0010240E826
:101490000027002FF5D184F84230256320680C30F6
:1014A00050E8002F22F0100240E80023002BF5D175
:1014B00066632046FFF703FFF8BDFFE705062BD55F
:1014C000150629D594F841002128F5D1A068B0F57A
:1014D000805F01D12069B0B1206A411C216221687E
:1014E00000784860E08C401E0004000CE084E3D1EA
:1014F0002068C16821F08001C1602068C16841F0A6
:101500004001C160D8E7206A0088C0F30800486045
:10151000206A801C2062E5E74006CDD55006CBD579
:10152000CA68204622F04002CA6084F8413000F0C8
:1015300006F9C1E7DB1C000870B5040004D094F87C
:101540004100002510B106E0012070BD84F8405034
:10155000204600F023F8242084F841002068C16868
:1015600021F40051C160204600F048FC2068016968
:1015700021F4904101612068416921F02A01416113
:101580002068C16841F40051C1606564202084F87E
:10159000410084F842006563002070BD30B585B01D
:1015A000002400940194029403940068184988422E
:1015B0002CD11848C16941F48021C161C16901F48D
:1015C00080210491816941F0080181618069124D97
:1015D00000F0080004904FF4806000900220019019
:1015E0000320039069462846FEF7C6FEE814CDE9BD
:1015F0000004694628460294FEF7BEFE002211460A
:101600002720FFF71BF82720FFF70AF805B030BDA9
:101610000048004000100240000C014090F84230A9
:10162000202B01D00220704721B11AB1002303639F
:1016300000F040BC0120704770B5174988422AD19C
:10164000164D174C287869782154401CC2B2A01856
:101650002A7010F8010C0A2815D14FF6FF732146A5
:101660000D4800F01FF80C48FFF72BFE2128FAD098
:101670000B4900206431225C0A54401C6428FADBC8
:10168000002020702870BDE8704004490122491CE8
:101690000148FFF7C3BF70BD3801002014000020CF
:1016A000800100202DE9F843044690F841001F46D0
:1016B00016460D46202802D00220BDE8F8837DB1F1
:1016C00076B100206064212084F84100FEF74AFFD3
:1016D000A6848046E684A068B0F5805F02D003E06F
:1016E0000120EAE7206910B12E4600250EE0002611
:1016F0000CE08021204600F0F8FBA0B9AEB116F84E
:10170000010B21684860E08C401EE084E08C434679
:101710004FF0000200970028EBD14FF04001204627
:1017200000F0E3FB30B10320C7E735F8020BC0F34C
:101730000800E6E7202084F841000020BDE770475C
:10174000FEE7000070B586B000241D4800940194A7
:1017500002940394816941F020018161816901F063
:1017600020010491816941F004018161816901F0E6
:1017700004010491816941F0080181618069114E81
:1017800000F008004FF443450490002229463046FB
:10179000FEF7E2FE01200095CDE90104022003904E
:1017A00069463046FEF7E8FD4FF4F850CDE90004F5
:1017B000694605480294FEF7DFFD06B070BD0000E3
:1017C00000100240000C01400008014010B586B036
:1017D000002418480094019402940394049414493A
:1017E0000594016040F2CF21C0E9011440F2E731D5
:1017F000C0E9031444618461FFF708FA08B1FEF7F9
:1018000049FD4FF48050009069460A48FFF74AFAB4
:1018100008B1FEF73FFD049404A906480594FFF7BC
:10182000C1F9002801D0FEF735FD06B010BD00005B
:10183000002C01401800002010B58AB00024079445
:101840001C2168460894FEF7BFFC22484FF08041F7
:1018500001600921C0E9011440F60F61C0E90314D9
:1018600080218161FFF773FC08B1FEF713FD079437
:1018700007A918480894FFF795F908B1FEF70AFD83
:101880006020CDE9000402940022694611480494C6
:10189000FFF7F7FB08B1FEF7FDFC042269460D488F
:1018A000FFF7EFFB08B1FEF7F5FC0822694609488F
:1018B000FFF7E7FB08B1FEF7EDFC0C22694605488F
:1018C000FFF7DFFB08B1FEF7E5FC0248FFF7B4FBCA
:1018D0000AB010BD6000002010B58CB0242168460D
:1018E000FEF772FC00241648099414490A94C0E9D2
:1018F00000144FF6FF71C0E90241046184610320C6
:10190000CDE900040120CDE902040494CDE90540AD
:10191000079469460A480894FFF732FA08B1FEF7BF
:10192000B9FC099409A906480A94FFF73BF9002875
:1019300001D0FEF7AFFC0CB010BD00000004004069
:10194000A800002010B58CB024216846FEF73CFCAE
:1019500000241648099414490A94C0E900144FF66B
:10196000FF71C0E90241046184610320CDE90004F4
:101970000120CDE902040494CDE9054007946946AD
:101980000A480894FFF7FCF908B1FEF783FC0994B4
:1019900009A906480A94FFF705F9002801D0FEF7C7
:1019A00079FC0CB010BD000000080040F0000020E1
:1019B0000C4810B50A4901604FF4E1314160002143
:1019C00081600C22C160C0E904128161C161FFF72E
:1019D000B3FD002803D0BDE81040FEF75BBC10BD8E
:1019E0000048004038010020FEE7FEE710B5002166
:1019F0000848FFF7EDFB04210648FFF7E9FB082143
:101A00000448FFF7E5FBBDE810400C210148FFF753
:101A1000DFBB00006000002070477047FEF7A8BDE4
:101A200030B58FB028216846FEF7CEFB14210AA8F6
:101A3000FEF7CAFB01210804CDE90010002402943E
:101A400002250491CDE907504FF4E0100990684653
:101A5000FEF702FF08B172B6FEE70F20CDE90A05D6
:101A60004FF48060CDE90C4002210AA80E94FEF7E5
:101A700017FE002801D072B6FEE70FB030BD7047E8
:101A80000148FFF726BA0000180000200148FFF7C0
:101A900020BA0000A80000200148FFF71ABA000091
:101AA000F0000020F0B50268164B174C174D4FF0B0
:101AB0008047984205D0B84203D0A04201D0A84246
:101AC00003D122F070064A683243984205D0B842EA
:101AD00003D0A04201D0A84203D122F44074CA68C6
:101AE00022434C6922F08002224302608A68C2626B
:101AF0000A688262984201D109690163012141614A
:101B0000F0BD0000002C014000040040000800402F
:101B100010B501F01F030121046A99408C4304624F
:101B2000016A9A401143016210BD10B5846842EA0F
:101B3000032224F47F440A432243826010BD82685A
:101B400022F070020A4342F00701816070470000F2
:101B500030B5036A026A22F00102026242688469B7
:101B600024F073050C682C4323F002058B682B438B
:101B70000A4DA8420BD123F00805CB6822F440722D
:101B80002B434D6923F0040315438A692A434260BD
:101B9000846149684163036230BD0000002C01404C
:101BA00030B5026A036A23F0100303624368846954
:101BB0000D6824F4E64444EA05248D6822F02002EE
:101BC00042EA05120B4DA8420ED1CD6822F08002E8
:101BD00042EA05124D6923F4406343EA85038D69A7
:101BE00022F0400243EA85034360846149688163CF
:101BF000026230BD002C014030B5036A026A22F453
:101C0000807202624268C46923F4007324F0730591
:101C10000C682C438D6843EA05230C4DA8420ED175
:101C2000CD6823F4006343EA05234D6922F4405252
:101C300042EA05128D6923F4806342EA051242608C
:101C4000C4614968C163036230BD0000002C0140DB
:101C500030B5046A026A22F4805202624268C369A3
:101C60000D6823F4E64343EA05238D6824F4005409
:101C700044EA0534064DA84204D14D6922F480425D
:101C800042EA85124260C36149680164046230BD62
:101C9000002C014010B5036A046A24F001040462B8
:101CA000846924F0F00444EA021423F00A020A438F
:101CB0008461026210BD10B5036A046A24F0100446
:101CC0000462846923F0A00324F4704444EA0232DD
:101CD00043EA01118261016210BD10B5406A002122
:101CE000C185C184FFF7ECFA10BD01680C3151E8E1
:101CF000002F22F4907241E80023002BF5D10168F7
:101D0000143151E8002F22F0010241E80023002B9A
:101D1000F5D1016B012909D101680C3151E8002F7F
:101D200022F0100241E80023002BF5D1202180F899
:101D3000421000210163704708B590F84210222933
:101D400001D0022008BD82684FF480539A4201D12D
:101D5000016921B1816A9A421BD04AB10AE0026846
:101D6000816A5268C2F308020A80816A891C08E00D
:101D7000026972B10268526802F07F020A70816AD9
:101D8000491C8162C18D491E0904090CC18503D01B
:101D90001BE002685268F1E70168CA6822F020027D
:101DA000CA600168CA6822F48072CA6001684A6920
:101DB00022F001024A61202180F842100021416393
:101DC000026B012A03D0FFF737FC002008BD016336
:101DD00001680C3151E8002F22F0100241E8002385
:101DE000002BF5D101680A68D20602D50A68496855
:101DF0000091818DFFF763FAE7E7000070B50446B4
:101E000000680169E26821F44051114301612169D0
:101E1000A0680843616908432168CA6841F20C63FD
:101E20009A430243CA6020684169A26921F4407163
:101E3000114341611E492068884202D1FEF7D6FC59
:101E400001E0FEF7C3FC00EBC00101EB001260688B
:101E500064218000B2FBF0F3B3FBF1F36FF01806DE
:101E60007343B2FBF0F5B2FBF0F605EB83053223CA
:101E700003EB0515B5FBF1F5B6FBF1F605F0F00542
:101E800005EB0615B2FBF0F6B2FBF0F0B0FBF1F09B
:101E90006FF01802504306EB800003EB0010B0FB1C
:101EA000F1F0216800F00F002844886070BD000048
:101EB0000038014081628285C2850021416422216F
:101EC00080F84210016921B10168CA6842F4807249
:101ED000CA6001684A6942F001024A610068C1684B
:101EE00041F02001C160002070472DE9F041984683
:101EF00017460E460446069D27E0681C25D02DB1E6
:101F0000FEF730FBA0EB0800A8421ED920680C3079
:101F100050E8001F21F4D07140E80012002AF5D1EA
:101F20002068143050E8001F21F0010140E8001241
:101F3000002AF5D1202084F8410084F842000020D6
:101F400084F840000320BDE8F0812068006836EA8C
:101F5000000004D00020B842CFD00020F3E70120D9
:101F6000F9E700000148FFF7B1B90000380100208F
:101F7000FEE70907090E002804DB00F1E02080F8E5
:101F80000014704700F00F0000F1E02080F8141DED
:101F90007047000040F6AC54FEF7F2FAFFF740FD40
:101FA000FFF7D0FBFFF712FCFFF746FCFFF794FCAE
:101FB000FFF7C8FCFFF7FCFCFFF718FD074D0122F7
:101FC00091032846FEF7C8FA00224FF40041284644
:101FD000FEF7C2FA024801684C63FCE7000C0140BE
:101FE00060000020010202030405060708090A0B2D
:101FF0000C0D0E0F10100000000000000000010288
:1020000003040607080900000000010203040000A1
:1020100030200008000000201800000028010008FF
:102020004820000818000020900800004401000823
:102030000100000010000000000000000024F40077
:08204000000000000000000098
:04000005080000ED02
:00000001FF
